:100000000C9462000C948A000C948A000C948A0070
:100010000C948A000C948A000C948A000C948A0038
:100020000C948A000C948A000C948A000C948A0028
:100030000C948A000C948A000C948A000C948A0018
:100040000C94A9020C948A000C946F020C94340254
:100050000C948A000C948A000C948A000C948A00F8
:100060000C948A000C948A000000000024002700F1
:100070002A0000000000250028002B0000000000DE
:1000800023002600290004040404040404040202DA
:100090000202020203030303030301020408102007
:1000A0004080010204081020010204081020000012
:1000B0000007000201000003040600000000000029
:1000C0000000F30211241FBECFEFD8E0DEBFCDBF8A
:1000D00011E0A0E0B1E0E2EAFAE002C005900D9282
:1000E000A431B107D9F721E0A4E1B1E001C01D922C
:1000F000A33DB207E1F710E0C2E6D0E004C02197CB
:10010000FE010E944905C136D107C9F70E946B0361
:100110000C9410050C94000008950F931F93CF9337
:10012000DF93FC01A685B7858D01005C1F4FE801B8
:100130008881998101968F739927AD014E5B5F4F3E
:10014000EA012881398128173907D1F3E80128818C
:100150003981A20FB31F6C93A685B785A05CBF4FF2
:1001600011969C938E93A689B7892C9181E090E09B
:10017000078C02C0880F991F0A94E2F7822B8C9398
:1001800081E081A30488F589E02D808180648083EB
:1001900081E090E0DF91CF911F910F910895FC01D4
:1001A00081A1882329F0A489B5898C9186FFFBCF92
:1001B00011A20895FC01A485B585FD01E05CFF4F07
:1001C000208131813296808191812817390779F019
:1001D00080819181A80FB91F8C91208131812F5F7F
:1001E0003F4F2F7333273183208390E008958FEFA3
:1001F0009FEF0895DC011C96ED91FC911D97DF01A6
:10020000A05CBF4F2D913C91119712968D919C91BE
:1002100011972817390739F08D919C91E80FF91F34
:10022000808190E008958FEF9FEF0895FC01248571
:100230003585F901E05CFF4F808191813296208104
:100240003181821B930B8F739927089585EA91E082
:100250000C941601CF92DF92EF92FF920F931F93AF
:10026000CF93DF936C01EB017B01E40EF51E00E000
:1002700010E0CE15DF0561F06991D601ED91FC919A
:100280000190F081E02DC6010995080F191FF1CFEB
:10029000C801DF91CF911F910F91FF90EF90DF90F8
:1002A000CF900895833081F028F4813099F0823026
:1002B000A1F008958630A9F08730B9F08430D1F4E8
:1002C000809180008F7D03C0809180008F77809324
:1002D0008000089584B58F7702C084B58F7D84BD7A
:1002E00008958091B0008F7703C08091B0008F7D1A
:1002F0008093B0000895CF93DF93282F30E0F90169
:10030000E255FF4F8491F901E656FF4FD491F90170
:10031000EA57FF4FC491CC2391F081110E94520102
:10032000EC2FF0E0EE0FFF1FE458FF4FA591B491C2
:10033000EC91ED2381E090E021F480E002C080E0C8
:1003400090E0DF91CF9108951F93CF93DF93282FF3
:1003500030E0F901E255FF4F8491F901E656FF4F75
:10036000D491F901EA57FF4FC491CC23C1F0162F65
:1003700081110E945201EC2FF0E0EE0FFF1FEE58AA
:10038000FF4FA591B4919FB7F894111104C08C91BF
:10039000D095D82302C0EC91DE2BDC939FBFDF9178
:1003A000CF911F910895CF93DF9390E0FC01E65623
:1003B000FF4F2491FC01EA57FF4F8491882361F19C
:1003C00090E0880F991FFC01E859FF4FC591D49127
:1003D000FC01EE58FF4FA591B491611109C09FB780
:1003E000F8948881209582238883EC912E230BC07A
:1003F000623061F49FB7F8948881322F309583235F
:100400008883EC912E2B2C939FBF06C08FB7F89456
:10041000E8812E2B28838FBFDF91CF9108953FB7BE
:10042000F8948091190190911A01A0911B01B0914B
:100430001C0126B5A89B05C02F3F19F00196A11DF0
:10044000B11D3FBFBA2FA92F982F8827820F911D6A
:10045000A11DB11DBC01CD0142E0660F771F881FB1
:10046000991F4A95D1F708951F920F920FB60F92D8
:1004700011242F933F938F939F93EF93FF9320919A
:100480005D0130915E0180915F01909160012817BC
:10049000390731F48091C1008F7D8093C10014C071
:1004A000E0915F01F0916001E35EFE4F2081809159
:1004B0005F019091600101968F739927909360017D
:1004C00080935F012093C600FF91EF919F918F91E0
:1004D0003F912F910F900FBE0F901F9018951F9274
:1004E0000F920FB60F9211242F934F935F938F9318
:1004F0009F93EF93FF938091C00082FD1CC02091D9
:10050000C6008091A1019091A2014091A301509158
:10051000A40101968F7399274817590771F0E0914C
:10052000A101F091A201EF59FE4F20839093A20107
:100530008093A10102C08091C600FF91EF919F912D
:100540008F915F914F912F910F900FBE0F901F9041
:1005500018951F920F920FB60F9211242F933F936D
:100560008F939F93AF93BF93809115019091160144
:10057000A0911701B09118013091140123E0230FCD
:100580002D3720F40196A11DB11D05C026E8230FCB
:100590000296A11DB11D2093140180931501909323
:1005A0001601A0931701B093180180911901909141
:1005B0001A01A0911B01B0911C010196A11DB11D52
:1005C0008093190190931A01A0931B01B0931C0111
:1005D000BF91AF919F918F913F912F910F900FBE3F
:1005E0000F901F9018951092A8011092A70188EE05
:1005F00093E0A0E0B0E08093A9019093AA01A093BA
:10060000AB01B093AC0184E091E09093A60180939C
:10061000A50181E691E09093B2018093B1018DE153
:1006200091E09093B4018093B30185EC90E09093B6
:10063000B6018093B50184EC90E09093B80180936B
:10064000B70180EC90E09093BA018093B90181ECFE
:1006500090E09093BC018093BB0182EC90E090937A
:10066000BE018093BD0186EC90E09093C001809321
:10067000BF0184E08093C10193E09093C20127E021
:100680002093C30125E02093C40121E02093C501FC
:100690009093C8018093C90161E083E00E94D30177
:1006A00060E08091C9010E94D30180E29EE4A0E055
:1006B000B0E08093CF019093D001A093D101B0938B
:1006C000D20181E02091C8019091C901291380E0F5
:1006D0008093C7010895CF93DF93CDB7DEB7A1977D
:1006E0000FB6F894DEBF0FBECDBF789484B582609C
:1006F00084BD84B5816084BD85B5826085BD85B5C6
:10070000816085BD80916E00816080936E00109243
:1007100081008091810082608093810080918100BE
:10072000816080938100809180008160809380004F
:100730008091B10084608093B1008091B0008160AD
:100740008093B00080917A00846080937A008091D9
:100750007A00826080937A0080917A008160809331
:100760007A0080917A00806880937A001092C100AC
:10077000E091B901F091BA0181E090E09C01009014
:10078000C50102C0220F331F0A94E2F72083E091D3
:10079000B501F091B6011082E091B701F091B80176
:1007A0002FEC20831092C601E091BB01F091BC01B7
:1007B00040819C010090C10102C0220F331F0A94A6
:1007C000E2F7242B2083E091BB01F091BC01408132
:1007D0009C010090C20102C0220F331F0A94E2F76D
:1007E000242B2083E091BB01F091BC0140819C014E
:1007F0000090C30102C0220F331F0A94E2F7242B9A
:100800002083E091BB01F091BC0120810090C401E4
:1008100002C0880F991F0A94E2F780958223808393
:1008200061E08DE00E94D30192E0E92EF12C22E2FA
:10083000C22ED12C38E3232E312C4AE0842E912C69
:10084000A12CB12C8091C701882329F061E080910F
:10085000C8010E94D30160E08091C8010E94A401F8
:10086000C7010197F1F761E08091C8010E94A401DE
:10087000C6010197F1F760E08091C8010E94A401D0
:100880008091C701882329F060E08091C8010E940F
:10089000D3010E940F026093CB017093CC0180932F
:1008A000CD019093CE018091C9010E947B01892BDB
:1008B000E9F40E940F020091CB011091CC0120912C
:1008C000CD013091CE01DC01CB01801B910BA20B3D
:1008D000B30B0091CF011091D0012091D101309143
:1008E000D201081719072A073B07E8F60E940F02F2
:1008F0006093CB017093CC018093CD019093CE0196
:100900008091C9010E947B01892BE9F00E940F02AE
:100910000091CB011091CC012091CD013091CE01FD
:10092000DC01CB01801B910BA20BB30B0091CF011B
:100930001091D0012091D1013091D20108171907EF
:100940002A073B07E8F60E940F022091CB01309165
:10095000CC01CB01821B930BB1010E9413052B012B
:10096000612C712C19A28E010F5D1F4FC301B201C2
:10097000A50194010E942705842D9AE0299F8019E2
:100980001124015011098A3014F4805D01C0895C82
:10099000F801808329013A01232B242B252B31F7E1
:1009A0000115110561F001900020E9F73197AF01C1
:1009B000401B510BB80185EA91E00E942A0143E0F7
:1009C00050E060E171E085EA91E00E942A016DE06B
:1009D00085EA91E00E948D006AE085EA91E00E943C
:1009E0008D000E940F028B0188EE482E83E0582E66
:1009F000612C712C0E940F02601B710B683E7340CA
:100A0000C8F381E0481A51086108710808511C4F69
:100A1000411451046104710469F70E94260112CF48
:100A2000F8940C944F05AA1BBB1B51E107C0AA1FE9
:100A3000BB1FA617B70710F0A61BB70B881F991F7F
:100A40005A95A9F780959095BC01CD010895A1E232
:100A50001A2EAA1BBB1BFD010DC0AA1FBB1FEE1F38
:100A6000FF1FA217B307E407F50720F0A21BB30B83
:100A7000E40BF50B661F771F881F991F1A9469F7FF
:100A800060957095809590959B01AC01BD01CF015B
:100A90000895EE0FFF1F0590F491E02D0994F8944E
:020AA000FFCF86
:100AA200000000008D002A011601DA00FA00CF00D2
:040AB20020636D0050
:00000001FF
